{
  "_format": "hh-sol-artifact-1",
  "contractName": "Mock",
  "sourceName": "contracts/Mock.sol",
  "abi": [
    {
      "inputs": [
        {
          "internalType": "uint256",
          "name": "initialSupply",
          "type": "uint256"
        }
      ],
      "stateMutability": "nonpayable",
      "type": "constructor"
    },
    {
      "inputs": [
        {
          "internalType": "address",
          "name": "spender",
          "type": "address"
        },
        {
          "internalType": "uint256",
          "name": "allowance",
          "type": "uint256"
        },
        {
          "internalType": "uint256",
          "name": "needed",
          "type": "uint256"
        }
      ],
      "name": "ERC20InsufficientAllowance",
      "type": "error"
    },
    {
      "inputs": [
        {
          "internalType": "address",
          "name": "sender",
          "type": "address"
        },
        {
          "internalType": "uint256",
          "name": "balance",
          "type": "uint256"
        },
        {
          "internalType": "uint256",
          "name": "needed",
          "type": "uint256"
        }
      ],
      "name": "ERC20InsufficientBalance",
      "type": "error"
    },
    {
      "inputs": [
        {
          "internalType": "address",
          "name": "approver",
          "type": "address"
        }
      ],
      "name": "ERC20InvalidApprover",
      "type": "error"
    },
    {
      "inputs": [
        {
          "internalType": "address",
          "name": "receiver",
          "type": "address"
        }
      ],
      "name": "ERC20InvalidReceiver",
      "type": "error"
    },
    {
      "inputs": [
        {
          "internalType": "address",
          "name": "sender",
          "type": "address"
        }
      ],
      "name": "ERC20InvalidSender",
      "type": "error"
    },
    {
      "inputs": [
        {
          "internalType": "address",
          "name": "spender",
          "type": "address"
        }
      ],
      "name": "ERC20InvalidSpender",
      "type": "error"
    },
    {
      "anonymous": false,
      "inputs": [
        {
          "indexed": true,
          "internalType": "address",
          "name": "owner",
          "type": "address"
        },
        {
          "indexed": true,
          "internalType": "address",
          "name": "spender",
          "type": "address"
        },
        {
          "indexed": false,
          "internalType": "uint256",
          "name": "value",
          "type": "uint256"
        }
      ],
      "name": "Approval",
      "type": "event"
    },
    {
      "anonymous": false,
      "inputs": [
        {
          "indexed": true,
          "internalType": "address",
          "name": "from",
          "type": "address"
        },
        {
          "indexed": true,
          "internalType": "address",
          "name": "to",
          "type": "address"
        },
        {
          "indexed": false,
          "internalType": "uint256",
          "name": "value",
          "type": "uint256"
        }
      ],
      "name": "Transfer",
      "type": "event"
    },
    {
      "inputs": [
        {
          "internalType": "address",
          "name": "owner",
          "type": "address"
        },
        {
          "internalType": "address",
          "name": "spender",
          "type": "address"
        }
      ],
      "name": "allowance",
      "outputs": [
        {
          "internalType": "uint256",
          "name": "",
          "type": "uint256"
        }
      ],
      "stateMutability": "view",
      "type": "function"
    },
    {
      "inputs": [
        {
          "internalType": "address",
          "name": "spender",
          "type": "address"
        },
        {
          "internalType": "uint256",
          "name": "value",
          "type": "uint256"
        }
      ],
      "name": "approve",
      "outputs": [
        {
          "internalType": "bool",
          "name": "",
          "type": "bool"
        }
      ],
      "stateMutability": "nonpayable",
      "type": "function"
    },
    {
      "inputs": [
        {
          "internalType": "address",
          "name": "account",
          "type": "address"
        }
      ],
      "name": "balanceOf",
      "outputs": [
        {
          "internalType": "uint256",
          "name": "",
          "type": "uint256"
        }
      ],
      "stateMutability": "view",
      "type": "function"
    },
    {
      "inputs": [
        {
          "internalType": "uint256",
          "name": "amount",
          "type": "uint256"
        }
      ],
      "name": "burn",
      "outputs": [],
      "stateMutability": "nonpayable",
      "type": "function"
    },
    {
      "inputs": [
        {
          "internalType": "address",
          "name": "account",
          "type": "address"
        },
        {
          "internalType": "uint256",
          "name": "amount",
          "type": "uint256"
        }
      ],
      "name": "burnFrom",
      "outputs": [],
      "stateMutability": "nonpayable",
      "type": "function"
    },
    {
      "inputs": [],
      "name": "decimals",
      "outputs": [
        {
          "internalType": "uint8",
          "name": "",
          "type": "uint8"
        }
      ],
      "stateMutability": "view",
      "type": "function"
    },
    {
      "inputs": [],
      "name": "name",
      "outputs": [
        {
          "internalType": "string",
          "name": "",
          "type": "string"
        }
      ],
      "stateMutability": "view",
      "type": "function"
    },
    {
      "inputs": [],
      "name": "symbol",
      "outputs": [
        {
          "internalType": "string",
          "name": "",
          "type": "string"
        }
      ],
      "stateMutability": "view",
      "type": "function"
    },
    {
      "inputs": [],
      "name": "totalSupply",
      "outputs": [
        {
          "internalType": "uint256",
          "name": "",
          "type": "uint256"
        }
      ],
      "stateMutability": "view",
      "type": "function"
    },
    {
      "inputs": [
        {
          "internalType": "address",
          "name": "to",
          "type": "address"
        },
        {
          "internalType": "uint256",
          "name": "value",
          "type": "uint256"
        }
      ],
      "name": "transfer",
      "outputs": [
        {
          "internalType": "bool",
          "name": "",
          "type": "bool"
        }
      ],
      "stateMutability": "nonpayable",
      "type": "function"
    },
    {
      "inputs": [
        {
          "internalType": "address",
          "name": "from",
          "type": "address"
        },
        {
          "internalType": "address",
          "name": "to",
          "type": "address"
        },
        {
          "internalType": "uint256",
          "name": "value",
          "type": "uint256"
        }
      ],
      "name": "transferFrom",
      "outputs": [
        {
          "internalType": "bool",
          "name": "",
          "type": "bool"
        }
      ],
      "stateMutability": "nonpayable",
      "type": "function"
    }
  ],
  "bytecode": "0x608060405234801561001057600080fd5b50604051610c2a380380610c2a83398101604081905261002f9161020d565b604051806040016040528060088152602001674d6f636b5553444360c01b815250604051806040016040528060068152602001654d5f5553444360d01b815250816003908161007e91906102c5565b50600461008b82826102c5565b50505061009e33826100a460201b60201c565b506103aa565b6001600160a01b0382166100d35760405163ec442f0560e01b8152600060048201526024015b60405180910390fd5b6100df600083836100e3565b5050565b6001600160a01b03831661010e5780600260008282546101039190610383565b909155506101809050565b6001600160a01b038316600090815260208190526040902054818110156101615760405163391434e360e21b81526001600160a01b038516600482015260248101829052604481018390526064016100ca565b6001600160a01b03841660009081526020819052604090209082900390555b6001600160a01b03821661019c576002805482900390556101bb565b6001600160a01b03821660009081526020819052604090208054820190555b816001600160a01b0316836001600160a01b03167fddf252ad1be2c89b69c2b068fc378daa952ba7f163c4a11628f55a4df523b3ef8360405161020091815260200190565b60405180910390a3505050565b60006020828403121561021f57600080fd5b5051919050565b634e487b7160e01b600052604160045260246000fd5b600181811c9082168061025057607f821691505b60208210810361027057634e487b7160e01b600052602260045260246000fd5b50919050565b601f8211156102c057806000526020600020601f840160051c8101602085101561029d5750805b601f840160051c820191505b818110156102bd57600081556001016102a9565b50505b505050565b81516001600160401b038111156102de576102de610226565b6102f2816102ec845461023c565b84610276565b6020601f821160018114610326576000831561030e5750848201515b600019600385901b1c1916600184901b1784556102bd565b600084815260208120601f198516915b828110156103565787850151825560209485019460019092019101610336565b50848210156103745786840151600019600387901b60f8161c191681555b50505050600190811b01905550565b808201808211156103a457634e487b7160e01b600052601160045260246000fd5b92915050565b610871806103b96000396000f3fe608060405234801561001057600080fd5b50600436106100c95760003560e01c806342966c681161008157806395d89b411161005b57806395d89b4114610194578063a9059cbb1461019c578063dd62ed3e146101af57600080fd5b806342966c681461014357806370a082311461015857806379cc67901461018157600080fd5b806318160ddd116100b257806318160ddd1461010f57806323b872dd14610121578063313ce5671461013457600080fd5b806306fdde03146100ce578063095ea7b3146100ec575b600080fd5b6100d66101e8565b6040516100e391906106a1565b60405180910390f35b6100ff6100fa36600461070b565b61027a565b60405190151581526020016100e3565b6002545b6040519081526020016100e3565b6100ff61012f366004610735565b610294565b604051601281526020016100e3565b610156610151366004610772565b6102b8565b005b61011361016636600461078b565b6001600160a01b031660009081526020819052604090205490565b61015661018f36600461070b565b6102c5565b6100d66102de565b6100ff6101aa36600461070b565b6102ed565b6101136101bd3660046107ad565b6001600160a01b03918216600090815260016020908152604080832093909416825291909152205490565b6060600380546101f7906107e0565b80601f0160208091040260200160405190810160405280929190818152602001828054610223906107e0565b80156102705780601f1061024557610100808354040283529160200191610270565b820191906000526020600020905b81548152906001019060200180831161025357829003601f168201915b5050505050905090565b6000336102888185856102fb565b60019150505b92915050565b6000336102a285828561030d565b6102ad8585856103a9565b506001949350505050565b6102c23382610421565b50565b6102d082338361030d565b6102da8282610421565b5050565b6060600480546101f7906107e0565b6000336102888185856103a9565b6103088383836001610457565b505050565b6001600160a01b0383811660009081526001602090815260408083209386168352929052205460001981146103a35781811015610394576040517ffb8f41b20000000000000000000000000000000000000000000000000000000081526001600160a01b038416600482015260248101829052604481018390526064015b60405180910390fd5b6103a384848484036000610457565b50505050565b6001600160a01b0383166103d357604051634b637e8f60e11b81526000600482015260240161038b565b6001600160a01b038216610416576040517fec442f050000000000000000000000000000000000000000000000000000000081526000600482015260240161038b565b61030883838361055e565b6001600160a01b03821661044b57604051634b637e8f60e11b81526000600482015260240161038b565b6102da8260008361055e565b6001600160a01b03841661049a576040517fe602df050000000000000000000000000000000000000000000000000000000081526000600482015260240161038b565b6001600160a01b0383166104dd576040517f94280d620000000000000000000000000000000000000000000000000000000081526000600482015260240161038b565b6001600160a01b03808516600090815260016020908152604080832093871683529290522082905580156103a357826001600160a01b0316846001600160a01b03167f8c5be1e5ebec7d5bd14f71427d1e84f3dd0314c0f7b2291e5b200ac8c7c3b9258460405161055091815260200190565b60405180910390a350505050565b6001600160a01b03831661058957806002600082825461057e919061081a565b909155506106149050565b6001600160a01b038316600090815260208190526040902054818110156105f5576040517fe450d38c0000000000000000000000000000000000000000000000000000000081526001600160a01b0385166004820152602481018290526044810183905260640161038b565b6001600160a01b03841660009081526020819052604090209082900390555b6001600160a01b0382166106305760028054829003905561064f565b6001600160a01b03821660009081526020819052604090208054820190555b816001600160a01b0316836001600160a01b03167fddf252ad1be2c89b69c2b068fc378daa952ba7f163c4a11628f55a4df523b3ef8360405161069491815260200190565b60405180910390a3505050565b602081526000825180602084015260005b818110156106cf57602081860181015160408684010152016106b2565b506000604082850101526040601f19601f83011684010191505092915050565b80356001600160a01b038116811461070657600080fd5b919050565b6000806040838503121561071e57600080fd5b610727836106ef565b946020939093013593505050565b60008060006060848603121561074a57600080fd5b610753846106ef565b9250610761602085016106ef565b929592945050506040919091013590565b60006020828403121561078457600080fd5b5035919050565b60006020828403121561079d57600080fd5b6107a6826106ef565b9392505050565b600080604083850312156107c057600080fd5b6107c9836106ef565b91506107d7602084016106ef565b90509250929050565b600181811c908216806107f457607f821691505b60208210810361081457634e487b7160e01b600052602260045260246000fd5b50919050565b8082018082111561028e57634e487b7160e01b600052601160045260246000fdfea26469706673582212200542d13d36142e9b0f906e49fd42ec9121dc6d69258a0fce668e283529169e2364736f6c634300081b0033",
  "linkReferences": {},
  "deployedLinkReferences": {}
}